:100000000C9438000C94DD000C94DD000C94DD00A1
:100010000C94DD000C94DD000C94DD000C94DD00EC
:100020000C94DD000C94DD000C94DD000C94DD00DC
:100030000C94DD000C94DD000C94DD000C94DD00CC
:100040000C94DD000C94DD000C94DD000C94DD00BC
:100050000C94DD000C94DD000C94DD000C94DD00AC
:100060000C94DD000C94DD000100010A0001C800C1
:1000700011241FBECFEFD8E0DEBFCDBFE8E6F0E031
:1000800040E017C0B591A59135912591059107FDE7
:100090000CC095918591EF01F92FE82F05900D92F5
:1000A000A217B307D9F7FE0104C01D92A217B30728
:1000B000E1F7EF36F40731F70E9462000C94D200AA
:0400C000F894FFCFE2
:1000C4000E94C200DD24D394EE24E394F12C0F2E7D
:1000D400FDECCF2EF02DFC9C012D1124102F169534
:1000E40016951695110F812F880F880F180F2F2D35
:1000F400211B122F069506950695C4E1D0E0612FC9
:10010400802F0E94A5002197D1F783B1807193B10C
:100114009072EE2021F0811102C0F110FA94DD20DA
:1001240031F0911104C032E63F1508F0F3944FEF1B
:1001340020E732E0415020403040E1F700C00000A9
:06014400D92EE82EC8CF01
:10014A00E62FF0E0E050FF4F90819BB9289A29985A
:10015A00EFE1FEE43197F1F700C00000E82FF0E08C
:10016A00E050FF4F80818BB9299A28988FE19EE44D
:0A017A000197F1F700C0000008959E
:100184008FEF8AB91BB884B1836084B985B18C7F41
:1001940085B984B18F7C84B985B1806385B90895AC
:1001A400EC010E94E2000E94E100CE010E94E30003
:0601B400CE010E94DF00F5
:0401BA000C940000A1
:0401BE000E9460003B
:0201C20008959E
:0201C40008959C
:0201C60008959A
:0A01C8003F065B4F666D7D077F6FF9
:00000001FF
